{
  "_format": "hh-sol-artifact-1",
  "contractName": "InsuranceContract",
  "sourceName": "contracts/InsuranceContract.sol",
  "abi": [
    {
      "inputs": [
        {
          "internalType": "address",
          "name": "_insuranceService",
          "type": "address"
        },
        {
          "internalType": "uint256",
          "name": "_insuranceFee",
          "type": "uint256"
        }
      ],
      "stateMutability": "nonpayable",
      "type": "constructor"
    },
    {
      "anonymous": false,
      "inputs": [
        {
          "indexed": true,
          "internalType": "address",
          "name": "client",
          "type": "address"
        },
        {
          "indexed": true,
          "internalType": "address",
          "name": "insuranceService",
          "type": "address"
        },
        {
          "indexed": false,
          "internalType": "uint256",
          "name": "insuranceFee",
          "type": "uint256"
        }
      ],
      "name": "ContractSigned",
      "type": "event"
    },
    {
      "anonymous": false,
      "inputs": [
        {
          "indexed": true,
          "internalType": "address",
          "name": "payer",
          "type": "address"
        },
        {
          "indexed": false,
          "internalType": "uint256",
          "name": "amount",
          "type": "uint256"
        }
      ],
      "name": "PaymentReceived",
      "type": "event"
    },
    {
      "anonymous": false,
      "inputs": [
        {
          "indexed": true,
          "internalType": "address",
          "name": "recipient",
          "type": "address"
        },
        {
          "indexed": false,
          "internalType": "uint256",
          "name": "amount",
          "type": "uint256"
        }
      ],
      "name": "TransactionSent",
      "type": "event"
    },
    {
      "inputs": [
        {
          "internalType": "address",
          "name": "",
          "type": "address"
        }
      ],
      "name": "Wallets",
      "outputs": [
        {
          "internalType": "uint256",
          "name": "",
          "type": "uint256"
        }
      ],
      "stateMutability": "view",
      "type": "function"
    },
    {
      "inputs": [],
      "name": "client",
      "outputs": [
        {
          "internalType": "address",
          "name": "",
          "type": "address"
        }
      ],
      "stateMutability": "view",
      "type": "function"
    },
    {
      "inputs": [],
      "name": "getClientBalance",
      "outputs": [
        {
          "internalType": "uint256",
          "name": "",
          "type": "uint256"
        }
      ],
      "stateMutability": "view",
      "type": "function"
    },
    {
      "inputs": [],
      "name": "getContractDetails",
      "outputs": [
        {
          "internalType": "address",
          "name": "_client",
          "type": "address"
        },
        {
          "internalType": "address",
          "name": "_insuranceService",
          "type": "address"
        },
        {
          "internalType": "uint256",
          "name": "_insuranceFee",
          "type": "uint256"
        },
        {
          "internalType": "bool",
          "name": "_isContractSigned",
          "type": "bool"
        }
      ],
      "stateMutability": "view",
      "type": "function"
    },
    {
      "inputs": [
        {
          "internalType": "uint256",
          "name": "index",
          "type": "uint256"
        }
      ],
      "name": "getTransaction",
      "outputs": [
        {
          "internalType": "address",
          "name": "recipient",
          "type": "address"
        },
        {
          "internalType": "uint256",
          "name": "amount",
          "type": "uint256"
        },
        {
          "internalType": "uint256",
          "name": "timestamp",
          "type": "uint256"
        }
      ],
      "stateMutability": "view",
      "type": "function"
    },
    {
      "inputs": [],
      "name": "getTransactionCount",
      "outputs": [
        {
          "internalType": "uint256",
          "name": "",
          "type": "uint256"
        }
      ],
      "stateMutability": "view",
      "type": "function"
    },
    {
      "inputs": [],
      "name": "insuranceFee",
      "outputs": [
        {
          "internalType": "uint256",
          "name": "",
          "type": "uint256"
        }
      ],
      "stateMutability": "view",
      "type": "function"
    },
    {
      "inputs": [],
      "name": "insuranceService",
      "outputs": [
        {
          "internalType": "address",
          "name": "",
          "type": "address"
        }
      ],
      "stateMutability": "view",
      "type": "function"
    },
    {
      "inputs": [],
      "name": "isContractSigned",
      "outputs": [
        {
          "internalType": "bool",
          "name": "",
          "type": "bool"
        }
      ],
      "stateMutability": "view",
      "type": "function"
    },
    {
      "inputs": [],
      "name": "payInsuranceFee",
      "outputs": [],
      "stateMutability": "payable",
      "type": "function"
    },
    {
      "inputs": [
        {
          "internalType": "address",
          "name": "recipient",
          "type": "address"
        },
        {
          "internalType": "uint256",
          "name": "amount",
          "type": "uint256"
        }
      ],
      "name": "sendTransaction",
      "outputs": [],
      "stateMutability": "nonpayable",
      "type": "function"
    },
    {
      "inputs": [],
      "name": "signContract",
      "outputs": [],
      "stateMutability": "nonpayable",
      "type": "function"
    },
    {
      "inputs": [
        {
          "internalType": "uint256",
          "name": "",
          "type": "uint256"
        }
      ],
      "name": "transactions",
      "outputs": [
        {
          "internalType": "address",
          "name": "recipient",
          "type": "address"
        },
        {
          "internalType": "uint256",
          "name": "amount",
          "type": "uint256"
        },
        {
          "internalType": "uint256",
          "name": "timestamp",
          "type": "uint256"
        }
      ],
      "stateMutability": "view",
      "type": "function"
    },
    {
      "stateMutability": "payable",
      "type": "receive"
    }
  ],
  "bytecode": "0x60806040523480156200001157600080fd5b50604051620013243803806200132483398181016040528101906200003791906200016c565b336000806101000a81548173ffffffffffffffffffffffffffffffffffffffff021916908373ffffffffffffffffffffffffffffffffffffffff16021790555081600160006101000a81548173ffffffffffffffffffffffffffffffffffffffff021916908373ffffffffffffffffffffffffffffffffffffffff160217905550806002819055505050620001b3565b600080fd5b600073ffffffffffffffffffffffffffffffffffffffff82169050919050565b6000620000f982620000cc565b9050919050565b6200010b81620000ec565b81146200011757600080fd5b50565b6000815190506200012b8162000100565b92915050565b6000819050919050565b620001468162000131565b81146200015257600080fd5b50565b60008151905062000166816200013b565b92915050565b60008060408385031215620001865762000185620000c7565b5b600062000196858286016200011a565b9250506020620001a98582860162000155565b9150509250929050565b61116180620001c36000396000f3fe6080604052600436106100c55760003560e01c80638553993d1161007f5780639dfc9117116100595780639dfc9117146102b0578063af154011146102de578063b8b4f1a01461031b578063d709deb71461033257610121565b80638553993d1461023c57806397c4fac7146102465780639ace38c21461027157610121565b8062a8ae3d14610126578063109e94cf1461015157806325a9d4501461017c5780632e7700f0146101a7578063322f0941146101d257806333ea3dc8146101fd57610121565b366101215734600460003373ffffffffffffffffffffffffffffffffffffffff1673ffffffffffffffffffffffffffffffffffffffff16815260200190815260200160002060008282546101199190610a96565b925050819055005b600080fd5b34801561013257600080fd5b5061013b61035b565b6040516101489190610b0b565b60405180910390f35b34801561015d57600080fd5b50610166610381565b6040516101739190610b0b565b60405180910390f35b34801561018857600080fd5b506101916103a5565b60405161019e9190610b35565b60405180910390f35b3480156101b357600080fd5b506101bc6103ad565b6040516101c99190610b35565b60405180910390f35b3480156101de57600080fd5b506101e76103ba565b6040516101f49190610b6b565b60405180910390f35b34801561020957600080fd5b50610224600480360381019061021f9190610bb7565b6103cd565b60405161023393929190610be4565b60405180910390f35b6102446104d1565b005b34801561025257600080fd5b5061025b610643565b6040516102689190610b35565b60405180910390f35b34801561027d57600080fd5b5061029860048036038101906102939190610bb7565b610649565b6040516102a793929190610be4565b60405180910390f35b3480156102bc57600080fd5b506102c56106a3565b6040516102d59493929190610c1b565b60405180910390f35b3480156102ea57600080fd5b5061030560048036038101906103009190610c8c565b61070e565b6040516103129190610b35565b60405180910390f35b34801561032757600080fd5b50610330610726565b005b34801561033e57600080fd5b5061035960048036038101906103549190610cb9565b61083c565b005b600160009054906101000a900473ffffffffffffffffffffffffffffffffffffffff1681565b60008054906101000a900473ffffffffffffffffffffffffffffffffffffffff1681565b600047905090565b6000600580549050905090565b600360009054906101000a900460ff1681565b60008060006005805490508410610419576040517f08c379a000000000000000000000000000000000000000000000000000000000815260040161041090610d56565b60405180910390fd5b60006005858154811061042f5761042e610d76565b5b90600052602060002090600302016040518060600160405290816000820160009054906101000a900473ffffffffffffffffffffffffffffffffffffffff1673ffffffffffffffffffffffffffffffffffffffff1673ffffffffffffffffffffffffffffffffffffffff168152602001600182015481526020016002820154815250509050806000015181602001518260400151935093509350509193909250565b60008054906101000a900473ffffffffffffffffffffffffffffffffffffffff1673ffffffffffffffffffffffffffffffffffffffff163373ffffffffffffffffffffffffffffffffffffffff161461055f576040517f08c379a000000000000000000000000000000000000000000000000000000000815260040161055690610e17565b60405180910390fd5b600360009054906101000a900460ff16156105af576040517f08c379a00000000000000000000000000000000000000000000000000000000081526004016105a690610e83565b60405180910390fd5b60025434146105f3576040517f08c379a00000000000000000000000000000000000000000000000000000000081526004016105ea90610eef565b60405180910390fd5b3373ffffffffffffffffffffffffffffffffffffffff167f6ef95f06320e7a25a04a175ca677b7052bdd97131872c2192525a629f51be770346040516106399190610b35565b60405180910390a2565b60025481565b6005818154811061065957600080fd5b90600052602060002090600302016000915090508060000160009054906101000a900473ffffffffffffffffffffffffffffffffffffffff16908060010154908060020154905083565b60008060008060008054906101000a900473ffffffffffffffffffffffffffffffffffffffff16600160009054906101000a900473ffffffffffffffffffffffffffffffffffffffff16600254600360009054906101000a900460ff16935093509350935090919293565b60046020528060005260406000206000915090505481565b600360009054906101000a900460ff1615610776576040517f08c379a000000000000000000000000000000000000000000000000000000000815260040161076d90610e83565b60405180910390fd5b6001600360006101000a81548160ff021916908315150217905550600160009054906101000a900473ffffffffffffffffffffffffffffffffffffffff1673ffffffffffffffffffffffffffffffffffffffff1660008054906101000a900473ffffffffffffffffffffffffffffffffffffffff1673ffffffffffffffffffffffffffffffffffffffff167f7b88de2b4c67947ae83a34ee043c0f1ee1b2ca8e02337bb7f4b10220239e70f56002546040516108329190610b35565b60405180910390a3565b600160009054906101000a900473ffffffffffffffffffffffffffffffffffffffff1673ffffffffffffffffffffffffffffffffffffffff163373ffffffffffffffffffffffffffffffffffffffff16146108cc576040517f08c379a00000000000000000000000000000000000000000000000000000000081526004016108c390610f81565b60405180910390fd5b600360009054906101000a900460ff1661091b576040517f08c379a000000000000000000000000000000000000000000000000000000000815260040161091290610fed565b60405180910390fd5b8047101561095e576040517f08c379a000000000000000000000000000000000000000000000000000000000815260040161095590611059565b60405180910390fd5b60008273ffffffffffffffffffffffffffffffffffffffff1682604051610984906110aa565b60006040518083038185875af1925050503d80600081146109c1576040519150601f19603f3d011682016040523d82523d6000602084013e6109c6565b606091505b5050905080610a0a576040517f08c379a0000000000000000000000000000000000000000000000000000000008152600401610a019061110b565b60405180910390fd5b8273ffffffffffffffffffffffffffffffffffffffff167f4970bf8595442008a41b189fc026906b953e2a419e3029e6d0d6ce02a33ba85d83604051610a509190610b35565b60405180910390a2505050565b6000819050919050565b7f4e487b7100000000000000000000000000000000000000000000000000000000600052601160045260246000fd5b6000610aa182610a5d565b9150610aac83610a5d565b9250828201905080821115610ac457610ac3610a67565b5b92915050565b600073ffffffffffffffffffffffffffffffffffffffff82169050919050565b6000610af582610aca565b9050919050565b610b0581610aea565b82525050565b6000602082019050610b206000830184610afc565b92915050565b610b2f81610a5d565b82525050565b6000602082019050610b4a6000830184610b26565b92915050565b60008115159050919050565b610b6581610b50565b82525050565b6000602082019050610b806000830184610b5c565b92915050565b600080fd5b610b9481610a5d565b8114610b9f57600080fd5b50565b600081359050610bb181610b8b565b92915050565b600060208284031215610bcd57610bcc610b86565b5b6000610bdb84828501610ba2565b91505092915050565b6000606082019050610bf96000830186610afc565b610c066020830185610b26565b610c136040830184610b26565b949350505050565b6000608082019050610c306000830187610afc565b610c3d6020830186610afc565b610c4a6040830185610b26565b610c576060830184610b5c565b95945050505050565b610c6981610aea565b8114610c7457600080fd5b50565b600081359050610c8681610c60565b92915050565b600060208284031215610ca257610ca1610b86565b5b6000610cb084828501610c77565b91505092915050565b60008060408385031215610cd057610ccf610b86565b5b6000610cde85828601610c77565b9250506020610cef85828601610ba2565b9150509250929050565b600082825260208201905092915050565b7f5472616e73616374696f6e20696e646578206f7574206f6620626f756e647300600082015250565b6000610d40601f83610cf9565b9150610d4b82610d0a565b602082019050919050565b60006020820190508181036000830152610d6f81610d33565b9050919050565b7f4e487b7100000000000000000000000000000000000000000000000000000000600052603260045260246000fd5b7f4f6e6c792074686520636c69656e742063616e2063616c6c207468697320667560008201527f6e6374696f6e0000000000000000000000000000000000000000000000000000602082015250565b6000610e01602683610cf9565b9150610e0c82610da5565b604082019050919050565b60006020820190508181036000830152610e3081610df4565b9050919050565b7f436f6e747261637420697320616c7265616479207369676e6564000000000000600082015250565b6000610e6d601a83610cf9565b9150610e7882610e37565b602082019050919050565b60006020820190508181036000830152610e9c81610e60565b9050919050565b7f496e636f727265637420696e737572616e63652066656520616d6f756e740000600082015250565b6000610ed9601e83610cf9565b9150610ee482610ea3565b602082019050919050565b60006020820190508181036000830152610f0881610ecc565b9050919050565b7f4f6e6c792074686520696e737572616e636520736572766963652063616e206360008201527f616c6c20746869732066756e6374696f6e000000000000000000000000000000602082015250565b6000610f6b603183610cf9565b9150610f7682610f0f565b604082019050919050565b60006020820190508181036000830152610f9a81610f5e565b9050919050565b7f436f6e7472616374206973206e6f74207369676e656420796574000000000000600082015250565b6000610fd7601a83610cf9565b9150610fe282610fa1565b602082019050919050565b6000602082019050818103600083015261100681610fca565b9050919050565b7f496e73756666696369656e7420636f6e74726163742062616c616e6365000000600082015250565b6000611043601d83610cf9565b915061104e8261100d565b602082019050919050565b6000602082019050818103600083015261107281611036565b9050919050565b600081905092915050565b50565b6000611094600083611079565b915061109f82611084565b600082019050919050565b60006110b582611087565b9150819050919050565b7f5472616e73616374696f6e206661696c65640000000000000000000000000000600082015250565b60006110f5601283610cf9565b9150611100826110bf565b602082019050919050565b60006020820190508181036000830152611124816110e8565b905091905056fea2646970667358221220250f9f50f28b0824e9264fa7cc019dcd1365527bda8222d0a9559522c12d387664736f6c63430008130033",
  "linkReferences": {},
  "deployedLinkReferences": {}
}