{
  "_format": "hh-sol-artifact-1",
  "contractName": "CarInsurance",
  "sourceName": "contracts/CarInsurance.sol",
  "abi": [
    {
      "inputs": [],
      "stateMutability": "nonpayable",
      "type": "constructor"
    },
    {
      "anonymous": false,
      "inputs": [
        {
          "indexed": true,
          "internalType": "address",
          "name": "owner",
          "type": "address"
        },
        {
          "indexed": true,
          "internalType": "address",
          "name": "client",
          "type": "address"
        },
        {
          "indexed": false,
          "internalType": "uint256",
          "name": "amount",
          "type": "uint256"
        },
        {
          "indexed": false,
          "internalType": "uint256",
          "name": "timestamp",
          "type": "uint256"
        }
      ],
      "name": "AmountSentToClient",
      "type": "event"
    },
    {
      "anonymous": false,
      "inputs": [
        {
          "indexed": true,
          "internalType": "address",
          "name": "client",
          "type": "address"
        },
        {
          "indexed": false,
          "internalType": "uint256",
          "name": "insuranceType",
          "type": "uint256"
        },
        {
          "indexed": false,
          "internalType": "uint256",
          "name": "timestamp",
          "type": "uint256"
        }
      ],
      "name": "InsurancePurchased",
      "type": "event"
    },
    {
      "anonymous": false,
      "inputs": [
        {
          "indexed": true,
          "internalType": "address",
          "name": "client",
          "type": "address"
        },
        {
          "indexed": false,
          "internalType": "uint256",
          "name": "insuranceType",
          "type": "uint256"
        },
        {
          "indexed": false,
          "internalType": "uint256",
          "name": "timestamp",
          "type": "uint256"
        }
      ],
      "name": "MonthlyTransaction",
      "type": "event"
    },
    {
      "inputs": [
        {
          "internalType": "uint256",
          "name": "typeId",
          "type": "uint256"
        },
        {
          "internalType": "string",
          "name": "name",
          "type": "string"
        },
        {
          "internalType": "uint256",
          "name": "charges",
          "type": "uint256"
        },
        {
          "internalType": "string[]",
          "name": "privileges",
          "type": "string[]"
        }
      ],
      "name": "addInsuranceType",
      "outputs": [],
      "stateMutability": "nonpayable",
      "type": "function"
    },
    {
      "inputs": [
        {
          "internalType": "address",
          "name": "",
          "type": "address"
        }
      ],
      "name": "clientInsuranceSelection",
      "outputs": [
        {
          "internalType": "uint256",
          "name": "",
          "type": "uint256"
        }
      ],
      "stateMutability": "view",
      "type": "function"
    },
    {
      "inputs": [
        {
          "internalType": "address",
          "name": "",
          "type": "address"
        },
        {
          "internalType": "uint256",
          "name": "",
          "type": "uint256"
        }
      ],
      "name": "clientTransactions",
      "outputs": [
        {
          "internalType": "address",
          "name": "sender",
          "type": "address"
        },
        {
          "internalType": "uint256",
          "name": "amount",
          "type": "uint256"
        },
        {
          "internalType": "uint256",
          "name": "timestamp",
          "type": "uint256"
        }
      ],
      "stateMutability": "view",
      "type": "function"
    },
    {
      "inputs": [
        {
          "internalType": "address",
          "name": "client",
          "type": "address"
        }
      ],
      "name": "getAllClientInsurances",
      "outputs": [
        {
          "internalType": "uint256[]",
          "name": "",
          "type": "uint256[]"
        },
        {
          "internalType": "uint256[]",
          "name": "",
          "type": "uint256[]"
        },
        {
          "internalType": "string[]",
          "name": "",
          "type": "string[]"
        },
        {
          "internalType": "uint256[]",
          "name": "",
          "type": "uint256[]"
        }
      ],
      "stateMutability": "view",
      "type": "function"
    },
    {
      "inputs": [
        {
          "internalType": "address",
          "name": "client",
          "type": "address"
        }
      ],
      "name": "getAllClientReceive",
      "outputs": [
        {
          "components": [
            {
              "internalType": "address",
              "name": "sender",
              "type": "address"
            },
            {
              "internalType": "uint256",
              "name": "amount",
              "type": "uint256"
            },
            {
              "internalType": "uint256",
              "name": "timestamp",
              "type": "uint256"
            }
          ],
          "internalType": "struct CarInsurance.TransferStruct[]",
          "name": "",
          "type": "tuple[]"
        }
      ],
      "stateMutability": "view",
      "type": "function"
    },
    {
      "inputs": [
        {
          "internalType": "address",
          "name": "client",
          "type": "address"
        }
      ],
      "name": "getAllClientTransactions",
      "outputs": [
        {
          "components": [
            {
              "internalType": "address",
              "name": "sender",
              "type": "address"
            },
            {
              "internalType": "uint256",
              "name": "amount",
              "type": "uint256"
            },
            {
              "internalType": "uint256",
              "name": "timestamp",
              "type": "uint256"
            }
          ],
          "internalType": "struct CarInsurance.TransferStruct[]",
          "name": "",
          "type": "tuple[]"
        }
      ],
      "stateMutability": "view",
      "type": "function"
    },
    {
      "inputs": [],
      "name": "getAllInsuranceTypes",
      "outputs": [
        {
          "components": [
            {
              "internalType": "string",
              "name": "name",
              "type": "string"
            },
            {
              "internalType": "uint256",
              "name": "charges",
              "type": "uint256"
            },
            {
              "internalType": "string[]",
              "name": "privileges",
              "type": "string[]"
            }
          ],
          "internalType": "struct CarInsurance.InsuranceType[]",
          "name": "",
          "type": "tuple[]"
        }
      ],
      "stateMutability": "view",
      "type": "function"
    },
    {
      "inputs": [
        {
          "internalType": "uint256",
          "name": "typeId",
          "type": "uint256"
        }
      ],
      "name": "getCoverageDetails",
      "outputs": [
        {
          "internalType": "string",
          "name": "name",
          "type": "string"
        },
        {
          "internalType": "uint256",
          "name": "charges",
          "type": "uint256"
        },
        {
          "internalType": "string[]",
          "name": "privileges",
          "type": "string[]"
        }
      ],
      "stateMutability": "view",
      "type": "function"
    },
    {
      "inputs": [
        {
          "internalType": "address",
          "name": "",
          "type": "address"
        }
      ],
      "name": "insuranceActivationTime",
      "outputs": [
        {
          "internalType": "uint256",
          "name": "",
          "type": "uint256"
        }
      ],
      "stateMutability": "view",
      "type": "function"
    },
    {
      "inputs": [
        {
          "internalType": "uint256",
          "name": "",
          "type": "uint256"
        }
      ],
      "name": "insuranceTypes",
      "outputs": [
        {
          "internalType": "string",
          "name": "name",
          "type": "string"
        },
        {
          "internalType": "uint256",
          "name": "charges",
          "type": "uint256"
        }
      ],
      "stateMutability": "view",
      "type": "function"
    },
    {
      "inputs": [],
      "name": "monthlyTransaction",
      "outputs": [],
      "stateMutability": "payable",
      "type": "function"
    },
    {
      "inputs": [],
      "name": "owner",
      "outputs": [
        {
          "internalType": "address",
          "name": "",
          "type": "address"
        }
      ],
      "stateMutability": "view",
      "type": "function"
    },
    {
      "inputs": [],
      "name": "purchaseInsurance",
      "outputs": [],
      "stateMutability": "payable",
      "type": "function"
    },
    {
      "inputs": [
        {
          "internalType": "uint256",
          "name": "typeId",
          "type": "uint256"
        }
      ],
      "name": "selectInsuranceType",
      "outputs": [],
      "stateMutability": "nonpayable",
      "type": "function"
    },
    {
      "inputs": [
        {
          "internalType": "address payable",
          "name": "client",
          "type": "address"
        },
        {
          "internalType": "uint256",
          "name": "amount",
          "type": "uint256"
        }
      ],
      "name": "sendAmountToClient",
      "outputs": [],
      "stateMutability": "nonpayable",
      "type": "function"
    }
  ],
  "bytecode": "0x608060405234801561001057600080fd5b5033600460006101000a81548173ffffffffffffffffffffffffffffffffffffffff021916908373ffffffffffffffffffffffffffffffffffffffff160217905550612ed5806100616000396000f3fe6080604052600436106100e85760003560e01c806386efc03a1161008a578063ac5af49911610059578063ac5af49914610313578063edb8fb441461033c578063fa3d095b14610346578063fafd32df14610385576100e8565b806386efc03a146102785780638da5cb5b146102b55780639300c400146102e0578063a0b71b6914610309576100e8565b806324819cd4116100c657806324819cd414610196578063279c0779146101d357806327bbb267146101fc5780634568dd0414610239576100e8565b8063028ac00e146100ed5780630861d7ac1461012b57806317e9166314610156575b600080fd5b3480156100f957600080fd5b50610114600480360381019061010f9190611c90565b6103c2565b604051610122929190611d5c565b60405180910390f35b34801561013757600080fd5b5061014061046e565b60405161014d9190611fc0565b60405180910390f35b34801561016257600080fd5b5061017d60048036038101906101789190612040565b6106a2565b60405161018d94939291906121a2565b60405180910390f35b3480156101a257600080fd5b506101bd60048036038101906101b89190612040565b610a41565b6040516101ca9190612303565b60405180910390f35b3480156101df57600080fd5b506101fa60048036038101906101f59190612363565b610b49565b005b34801561020857600080fd5b50610223600480360381019061021e9190612040565b610df6565b60405161023091906123a3565b60405180910390f35b34801561024557600080fd5b50610260600480360381019061025b9190611c90565b610e0e565b60405161026f939291906123be565b60405180910390f35b34801561028457600080fd5b5061029f600480360381019061029a9190612040565b610fc8565b6040516102ac9190612303565b60405180910390f35b3480156102c157600080fd5b506102ca611126565b6040516102d79190612412565b60405180910390f35b3480156102ec57600080fd5b5061030760048036038101906103029190611c90565b61114c565b005b6103116111ec565b005b34801561031f57600080fd5b5061033a60048036038101906103359190612648565b61162d565b005b6103446116b8565b005b34801561035257600080fd5b5061036d600480360381019061036891906126e7565b611a6d565b60405161037c93929190612727565b60405180910390f35b34801561039157600080fd5b506103ac60048036038101906103a79190612040565b611ad4565b6040516103b991906123a3565b60405180910390f35b60026020528060005260406000206000915090508060000180546103e59061278d565b80601f01602080910402602001604051908101604052809291908181526020018280546104119061278d565b801561045e5780601f106104335761010080835404028352916020019161045e565b820191906000526020600020905b81548152906001019060200180831161044157829003601f168201915b5050505050908060010154905082565b60606000805467ffffffffffffffff81111561048d5761048c612437565b5b6040519080825280602002602001820160405280156104c657816020015b6104b3611b4b565b8152602001906001900390816104ab5790505b50905060005b60005481101561069a57600260008281526020019081526020016000206040518060600160405290816000820180546105049061278d565b80601f01602080910402602001604051908101604052809291908181526020018280546105309061278d565b801561057d5780601f106105525761010080835404028352916020019161057d565b820191906000526020600020905b81548152906001019060200180831161056057829003601f168201915b505050505081526020016001820154815260200160028201805480602002602001604051908101604052809291908181526020016000905b828210156106615783829060005260206000200180546105d49061278d565b80601f01602080910402602001604051908101604052809291908181526020018280546106009061278d565b801561064d5780601f106106225761010080835404028352916020019161064d565b820191906000526020600020905b81548152906001019060200180831161063057829003601f168201915b5050505050815260200190600101906105b5565b505050508152505082828151811061067c5761067b6127be565b5b602002602001018190525080806106929061281c565b9150506104cc565b508091505090565b6060806060806000805467ffffffffffffffff8111156106c5576106c4612437565b5b6040519080825280602002602001820160405280156106f35781602001602082028036833780820191505090505b5090506000805467ffffffffffffffff81111561071357610712612437565b5b6040519080825280602002602001820160405280156107415781602001602082028036833780820191505090505b5090506000805467ffffffffffffffff81111561076157610760612437565b5b60405190808252806020026020018201604052801561079457816020015b606081526020019060019003908161077f5790505b5090506000805467ffffffffffffffff8111156107b4576107b3612437565b5b6040519080825280602002602001820160405280156107e25781602001602082028036833780820191505090505b509050600080600190505b6000548111610a1c5780600360008d73ffffffffffffffffffffffffffffffffffffffff1673ffffffffffffffffffffffffffffffffffffffff1681526020019081526020016000205414801561088357506000600560008d73ffffffffffffffffffffffffffffffffffffffff1673ffffffffffffffffffffffffffffffffffffffff16815260200190815260200160002054115b15610a09578086838151811061089c5761089b6127be565b5b602002602001018181525050600560008c73ffffffffffffffffffffffffffffffffffffffff1673ffffffffffffffffffffffffffffffffffffffff168152602001908152602001600020548583815181106108fb576108fa6127be565b5b6020026020010181815250506002600082815260200190815260200160002060000180546109289061278d565b80601f01602080910402602001604051908101604052809291908181526020018280546109549061278d565b80156109a15780601f10610976576101008083540402835291602001916109a1565b820191906000526020600020905b81548152906001019060200180831161098457829003601f168201915b50505050508483815181106109b9576109b86127be565b5b602002602001018190525060026000828152602001908152602001600020600101548383815181106109ee576109ed6127be565b5b6020026020010181815250508180610a059061281c565b9250505b8080610a149061281c565b9150506107ed565b5080855280845280835280825284848484985098509850985050505050509193509193565b6060600660008373ffffffffffffffffffffffffffffffffffffffff1673ffffffffffffffffffffffffffffffffffffffff168152602001908152602001600020805480602002602001604051908101604052809291908181526020016000905b82821015610b3e57838290600052602060002090600302016040518060600160405290816000820160009054906101000a900473ffffffffffffffffffffffffffffffffffffffff1673ffffffffffffffffffffffffffffffffffffffff1673ffffffffffffffffffffffffffffffffffffffff1681526020016001820154815260200160028201548152505081526020019060010190610aa2565b505050509050919050565b600460009054906101000a900473ffffffffffffffffffffffffffffffffffffffff1673ffffffffffffffffffffffffffffffffffffffff163373ffffffffffffffffffffffffffffffffffffffff1614610bd9576040517f08c379a0000000000000000000000000000000000000000000000000000000008152600401610bd0906128b0565b60405180910390fd5b600073ffffffffffffffffffffffffffffffffffffffff168273ffffffffffffffffffffffffffffffffffffffff1603610c48576040517f08c379a0000000000000000000000000000000000000000000000000000000008152600401610c3f9061291c565b60405180910390fd5b60008111610c8b576040517f08c379a0000000000000000000000000000000000000000000000000000000008152600401610c8290612988565b60405180910390fd5b8173ffffffffffffffffffffffffffffffffffffffff166108fc829081150290604051600060405180830381858888f19350505050158015610cd1573d6000803e3d6000fd5b508173ffffffffffffffffffffffffffffffffffffffff163373ffffffffffffffffffffffffffffffffffffffff167f04d9ae15432bb8568bb05416b662e3ec8abd9ddf7f94b04fb13c7706ce6416478342604051610d319291906129a8565b60405180910390a3600160405180606001604052803373ffffffffffffffffffffffffffffffffffffffff16815260200183815260200142815250908060018154018082558091505060019003906000526020600020906003020160009091909190915060008201518160000160006101000a81548173ffffffffffffffffffffffffffffffffffffffff021916908373ffffffffffffffffffffffffffffffffffffffff160217905550602082015181600101556040820151816002015550505050565b60036020528060005260406000206000915090505481565b606060006060600060026000868152602001908152602001600020604051806060016040529081600082018054610e449061278d565b80601f0160208091040260200160405190810160405280929190818152602001828054610e709061278d565b8015610ebd5780601f10610e9257610100808354040283529160200191610ebd565b820191906000526020600020905b815481529060010190602001808311610ea057829003601f168201915b505050505081526020016001820154815260200160028201805480602002602001604051908101604052809291908181526020016000905b82821015610fa1578382906000526020600020018054610f149061278d565b80601f0160208091040260200160405190810160405280929190818152602001828054610f409061278d565b8015610f8d5780601f10610f6257610100808354040283529160200191610f8d565b820191906000526020600020905b815481529060010190602001808311610f7057829003601f168201915b505050505081526020019060010190610ef5565b50505050815250509050806000015181602001518260400151935093509350509193909250565b60608060005b60018054905081101561111c578373ffffffffffffffffffffffffffffffffffffffff1660018281548110611006576110056127be565b5b906000526020600020906003020160000160009054906101000a900473ffffffffffffffffffffffffffffffffffffffff1673ffffffffffffffffffffffffffffffffffffffff16146111095760018181548110611067576110666127be565b5b90600052602060002090600302016040518060600160405290816000820160009054906101000a900473ffffffffffffffffffffffffffffffffffffffff1673ffffffffffffffffffffffffffffffffffffffff1673ffffffffffffffffffffffffffffffffffffffff168152602001600182015481526020016002820154815250508282815181106110fd576110fc6127be565b5b60200260200101819052505b80806111149061281c565b915050610fce565b5080915050919050565b600460009054906101000a900473ffffffffffffffffffffffffffffffffffffffff1681565b60006002600083815260200190815260200160002060010154116111a5576040517f08c379a000000000000000000000000000000000000000000000000000000000815260040161119c90612a1d565b60405180910390fd5b80600360003373ffffffffffffffffffffffffffffffffffffffff1673ffffffffffffffffffffffffffffffffffffffff1681526020019081526020016000208190555050565b6000600360003373ffffffffffffffffffffffffffffffffffffffff1673ffffffffffffffffffffffffffffffffffffffff16815260200190815260200160002054905060008111611273576040517f08c379a000000000000000000000000000000000000000000000000000000000815260040161126a90612a89565b60405180910390fd5b6000600560003373ffffffffffffffffffffffffffffffffffffffff1673ffffffffffffffffffffffffffffffffffffffff16815260200190815260200160002054116112f5576040517f08c379a00000000000000000000000000000000000000000000000000000000081526004016112ec90612af5565b60405180910390fd5b6000600260008381526020019081526020016000206040518060600160405290816000820180546113259061278d565b80601f01602080910402602001604051908101604052809291908181526020018280546113519061278d565b801561139e5780601f106113735761010080835404028352916020019161139e565b820191906000526020600020905b81548152906001019060200180831161138157829003601f168201915b505050505081526020016001820154815260200160028201805480602002602001604051908101604052809291908181526020016000905b828210156114825783829060005260206000200180546113f59061278d565b80601f01602080910402602001604051908101604052809291908181526020018280546114219061278d565b801561146e5780601f106114435761010080835404028352916020019161146e565b820191906000526020600020905b81548152906001019060200180831161145157829003601f168201915b5050505050815260200190600101906113d6565b5050505081525050905061149533611aec565b6114d4576040517f08c379a00000000000000000000000000000000000000000000000000000000081526004016114cb90612b61565b60405180910390fd5b60008160200151905080341461151f576040517f08c379a000000000000000000000000000000000000000000000000000000000815260040161151690612bcd565b60405180910390fd5b3373ffffffffffffffffffffffffffffffffffffffff167f96b0548c739d91f2a874c76c7512eda3502ec65974a47bc80f9288f2e0c4f43084426040516115679291906129a8565b60405180910390a2600160405180606001604052803373ffffffffffffffffffffffffffffffffffffffff16815260200134815260200142815250908060018154018082558091505060019003906000526020600020906003020160009091909190915060008201518160000160006101000a81548173ffffffffffffffffffffffffffffffffffffffff021916908373ffffffffffffffffffffffffffffffffffffffff16021790555060208201518160010155604082015181600201555050505050565b6040518060600160405280848152602001838152602001828152506002600086815260200190815260200160002060008201518160000190816116709190612d99565b50602082015181600101556040820151816002019080519060200190611697929190611b6c565b509050506000808154809291906116ad9061281c565b919050555050505050565b6000600360003373ffffffffffffffffffffffffffffffffffffffff1673ffffffffffffffffffffffffffffffffffffffff1681526020019081526020016000205490506000811161173f576040517f08c379a000000000000000000000000000000000000000000000000000000000815260040161173690612a89565b60405180910390fd5b60006002600083815260200190815260200160002060405180606001604052908160008201805461176f9061278d565b80601f016020809104026020016040519081016040528092919081815260200182805461179b9061278d565b80156117e85780601f106117bd576101008083540402835291602001916117e8565b820191906000526020600020905b8154815290600101906020018083116117cb57829003601f168201915b505050505081526020016001820154815260200160028201805480602002602001604051908101604052809291908181526020016000905b828210156118cc57838290600052602060002001805461183f9061278d565b80601f016020809104026020016040519081016040528092919081815260200182805461186b9061278d565b80156118b85780601f1061188d576101008083540402835291602001916118b8565b820191906000526020600020905b81548152906001019060200180831161189b57829003601f168201915b505050505081526020019060010190611820565b505050508152505090508060200151341461191c576040517f08c379a000000000000000000000000000000000000000000000000000000000815260040161191390612bcd565b60405180910390fd5b3373ffffffffffffffffffffffffffffffffffffffff167f6c165bac7b911fd3865d9050099e5e033490a3e0b4a1771f691fccca2b3c0ed183426040516119649291906129a8565b60405180910390a242600560003373ffffffffffffffffffffffffffffffffffffffff1673ffffffffffffffffffffffffffffffffffffffff16815260200190815260200160002081905550600160405180606001604052803373ffffffffffffffffffffffffffffffffffffffff16815260200134815260200142815250908060018154018082558091505060019003906000526020600020906003020160009091909190915060008201518160000160006101000a81548173ffffffffffffffffffffffffffffffffffffffff021916908373ffffffffffffffffffffffffffffffffffffffff160217905550602082015181600101556040820151816002015550505050565b60066020528160005260406000208181548110611a8957600080fd5b9060005260206000209060030201600091509150508060000160009054906101000a900473ffffffffffffffffffffffffffffffffffffffff16908060010154908060020154905083565b60056020528060005260406000206000915090505481565b600080600560008473ffffffffffffffffffffffffffffffffffffffff1673ffffffffffffffffffffffffffffffffffffffff1681526020019081526020016000205490506301da9c0081611b419190612e6b565b4210915050919050565b60405180606001604052806060815260200160008152602001606081525090565b828054828255906000526020600020908101928215611bb4579160200282015b82811115611bb3578251829081611ba39190612d99565b5091602001919060010190611b8c565b5b509050611bc19190611bc5565b5090565b5b80821115611be55760008181611bdc9190611be9565b50600101611bc6565b5090565b508054611bf59061278d565b6000825580601f10611c075750611c26565b601f016020900490600052602060002090810190611c259190611c29565b5b50565b5b80821115611c42576000816000905550600101611c2a565b5090565b6000604051905090565b600080fd5b600080fd5b6000819050919050565b611c6d81611c5a565b8114611c7857600080fd5b50565b600081359050611c8a81611c64565b92915050565b600060208284031215611ca657611ca5611c50565b5b6000611cb484828501611c7b565b91505092915050565b600081519050919050565b600082825260208201905092915050565b60005b83811015611cf7578082015181840152602081019050611cdc565b60008484015250505050565b6000601f19601f8301169050919050565b6000611d1f82611cbd565b611d298185611cc8565b9350611d39818560208601611cd9565b611d4281611d03565b840191505092915050565b611d5681611c5a565b82525050565b60006040820190508181036000830152611d768185611d14565b9050611d856020830184611d4d565b9392505050565b600081519050919050565b600082825260208201905092915050565b6000819050602082019050919050565b600082825260208201905092915050565b6000611dd482611cbd565b611dde8185611db8565b9350611dee818560208601611cd9565b611df781611d03565b840191505092915050565b611e0b81611c5a565b82525050565b600081519050919050565b600082825260208201905092915050565b6000819050602082019050919050565b6000611e498383611dc9565b905092915050565b6000602082019050919050565b6000611e6982611e11565b611e738185611e1c565b935083602082028501611e8585611e2d565b8060005b85811015611ec15784840389528151611ea28582611e3d565b9450611ead83611e51565b925060208a01995050600181019050611e89565b50829750879550505050505092915050565b60006060830160008301518482036000860152611ef08282611dc9565b9150506020830151611f056020860182611e02565b5060408301518482036040860152611f1d8282611e5e565b9150508091505092915050565b6000611f368383611ed3565b905092915050565b6000602082019050919050565b6000611f5682611d8c565b611f608185611d97565b935083602082028501611f7285611da8565b8060005b85811015611fae5784840389528151611f8f8582611f2a565b9450611f9a83611f3e565b925060208a01995050600181019050611f76565b50829750879550505050505092915050565b60006020820190508181036000830152611fda8184611f4b565b905092915050565b600073ffffffffffffffffffffffffffffffffffffffff82169050919050565b600061200d82611fe2565b9050919050565b61201d81612002565b811461202857600080fd5b50565b60008135905061203a81612014565b92915050565b60006020828403121561205657612055611c50565b5b60006120648482850161202b565b91505092915050565b600081519050919050565b600082825260208201905092915050565b6000819050602082019050919050565b60006120a58383611e02565b60208301905092915050565b6000602082019050919050565b60006120c98261206d565b6120d38185612078565b93506120de83612089565b8060005b8381101561210f5781516120f68882612099565b9750612101836120b1565b9250506001810190506120e2565b5085935050505092915050565b600082825260208201905092915050565b600061213882611e11565b612142818561211c565b93508360208202850161215485611e2d565b8060005b8581101561219057848403895281516121718582611e3d565b945061217c83611e51565b925060208a01995050600181019050612158565b50829750879550505050505092915050565b600060808201905081810360008301526121bc81876120be565b905081810360208301526121d081866120be565b905081810360408301526121e4818561212d565b905081810360608301526121f881846120be565b905095945050505050565b600081519050919050565b600082825260208201905092915050565b6000819050602082019050919050565b61223881612002565b82525050565b606082016000820151612254600085018261222f565b5060208201516122676020850182611e02565b50604082015161227a6040850182611e02565b50505050565b600061228c838361223e565b60608301905092915050565b6000602082019050919050565b60006122b082612203565b6122ba818561220e565b93506122c58361221f565b8060005b838110156122f65781516122dd8882612280565b97506122e883612298565b9250506001810190506122c9565b5085935050505092915050565b6000602082019050818103600083015261231d81846122a5565b905092915050565b600061233082611fe2565b9050919050565b61234081612325565b811461234b57600080fd5b50565b60008135905061235d81612337565b92915050565b6000806040838503121561237a57612379611c50565b5b60006123888582860161234e565b925050602061239985828601611c7b565b9150509250929050565b60006020820190506123b86000830184611d4d565b92915050565b600060608201905081810360008301526123d88186611d14565b90506123e76020830185611d4d565b81810360408301526123f9818461212d565b9050949350505050565b61240c81612002565b82525050565b60006020820190506124276000830184612403565b92915050565b600080fd5b600080fd5b7f4e487b7100000000000000000000000000000000000000000000000000000000600052604160045260246000fd5b61246f82611d03565b810181811067ffffffffffffffff8211171561248e5761248d612437565b5b80604052505050565b60006124a1611c46565b90506124ad8282612466565b919050565b600067ffffffffffffffff8211156124cd576124cc612437565b5b6124d682611d03565b9050602081019050919050565b82818337600083830152505050565b6000612505612500846124b2565b612497565b90508281526020810184848401111561252157612520612432565b5b61252c8482856124e3565b509392505050565b600082601f8301126125495761254861242d565b5b81356125598482602086016124f2565b91505092915050565b600067ffffffffffffffff82111561257d5761257c612437565b5b602082029050602081019050919050565b600080fd5b60006125a66125a184612562565b612497565b905080838252602082019050602084028301858111156125c9576125c861258e565b5b835b8181101561261057803567ffffffffffffffff8111156125ee576125ed61242d565b5b8086016125fb8982612534565b855260208501945050506020810190506125cb565b5050509392505050565b600082601f83011261262f5761262e61242d565b5b813561263f848260208601612593565b91505092915050565b6000806000806080858703121561266257612661611c50565b5b600061267087828801611c7b565b945050602085013567ffffffffffffffff81111561269157612690611c55565b5b61269d87828801612534565b93505060406126ae87828801611c7b565b925050606085013567ffffffffffffffff8111156126cf576126ce611c55565b5b6126db8782880161261a565b91505092959194509250565b600080604083850312156126fe576126fd611c50565b5b600061270c8582860161202b565b925050602061271d85828601611c7b565b9150509250929050565b600060608201905061273c6000830186612403565b6127496020830185611d4d565b6127566040830184611d4d565b949350505050565b7f4e487b7100000000000000000000000000000000000000000000000000000000600052602260045260246000fd5b600060028204905060018216806127a557607f821691505b6020821081036127b8576127b761275e565b5b50919050565b7f4e487b7100000000000000000000000000000000000000000000000000000000600052603260045260246000fd5b7f4e487b7100000000000000000000000000000000000000000000000000000000600052601160045260246000fd5b600061282782611c5a565b91507fffffffffffffffffffffffffffffffffffffffffffffffffffffffffffffffff8203612859576128586127ed565b5b600182019050919050565b7f4e6f742074686520636f6e7472616374206f776e657200000000000000000000600082015250565b600061289a601683611cc8565b91506128a582612864565b602082019050919050565b600060208201905081810360008301526128c98161288d565b9050919050565b7f496e76616c696420636c69656e74206164647265737300000000000000000000600082015250565b6000612906601683611cc8565b9150612911826128d0565b602082019050919050565b60006020820190508181036000830152612935816128f9565b9050919050565b7f416d6f756e74206d7573742062652067726561746572207468616e2030000000600082015250565b6000612972601d83611cc8565b915061297d8261293c565b602082019050919050565b600060208201905081810360008301526129a181612965565b9050919050565b60006040820190506129bd6000830185611d4d565b6129ca6020830184611d4d565b9392505050565b7f496e76616c696420696e737572616e6365207479706500000000000000000000600082015250565b6000612a07601683611cc8565b9150612a12826129d1565b602082019050919050565b60006020820190508181036000830152612a36816129fa565b9050919050565b7f496e737572616e63652074797065206e6f742073656c65637465640000000000600082015250565b6000612a73601b83611cc8565b9150612a7e82612a3d565b602082019050919050565b60006020820190508181036000830152612aa281612a66565b9050919050565b7f496e737572616e6365206e6f7420616374697661746564000000000000000000600082015250565b6000612adf601783611cc8565b9150612aea82612aa9565b602082019050919050565b60006020820190508181036000830152612b0e81612ad2565b9050919050565b7f496e737572616e6365206e6f7420616374697665000000000000000000000000600082015250565b6000612b4b601483611cc8565b9150612b5682612b15565b602082019050919050565b60006020820190508181036000830152612b7a81612b3e565b9050919050565b7f496e73756666696369656e74206368617267657320616d6f756e740000000000600082015250565b6000612bb7601b83611cc8565b9150612bc282612b81565b602082019050919050565b60006020820190508181036000830152612be681612baa565b9050919050565b60008190508160005260206000209050919050565b60006020601f8301049050919050565b600082821b905092915050565b600060088302612c4f7fffffffffffffffffffffffffffffffffffffffffffffffffffffffffffffffff82612c12565b612c598683612c12565b95508019841693508086168417925050509392505050565b6000819050919050565b6000612c96612c91612c8c84611c5a565b612c71565b611c5a565b9050919050565b6000819050919050565b612cb083612c7b565b612cc4612cbc82612c9d565b848454612c1f565b825550505050565b600090565b612cd9612ccc565b612ce4818484612ca7565b505050565b5b81811015612d0857612cfd600082612cd1565b600181019050612cea565b5050565b601f821115612d4d57612d1e81612bed565b612d2784612c02565b81016020851015612d36578190505b612d4a612d4285612c02565b830182612ce9565b50505b505050565b600082821c905092915050565b6000612d7060001984600802612d52565b1980831691505092915050565b6000612d898383612d5f565b9150826002028217905092915050565b612da282611cbd565b67ffffffffffffffff811115612dbb57612dba612437565b5b612dc5825461278d565b612dd0828285612d0c565b600060209050601f831160018114612e035760008415612df1578287015190505b612dfb8582612d7d565b865550612e63565b601f198416612e1186612bed565b60005b82811015612e3957848901518255600182019150602085019450602081019050612e14565b86831015612e565784890151612e52601f891682612d5f565b8355505b6001600288020188555050505b505050505050565b6000612e7682611c5a565b9150612e8183611c5a565b9250828201905080821115612e9957612e986127ed565b5b9291505056fea2646970667358221220405263342b903526cf1d514bdeb69c4aad2c45693e620db5b73b6b90d39c871664736f6c63430008130033",
  "linkReferences": {},
  "deployedLinkReferences": {}
}